:1000000015C1000044C1000042C1000040C1000011
:100010003EC100003CC100003AC1000038C10000F0
:1000200036C1000034C1000032C1000030C1000000
:100030002EC100002CC100002AC1000028C1000010
:1000400026C1000024C1000022C1000020C1000020
:100050001EC100001CC100001AC100000C947708EA
:1000600016C100000C9409130C94E01210C100009A
:100070000EC100000CC100000AC1000008C1000050
:1000800006C1000004C1000002C1000000C1000060
:10009000FEC00000FCC00000FAC00000F8C0000074
:1000A000F6C00000F4C00000F2C00000F0C0000084
:1000B000EEC00000ECC00000EAC00000E8C0000094
:1000C000E6C00000E4C00000E2C00000E0C00000A4
:1000D000DEC00000DCC00000DAC00000D8C00000B4
:1000E000D6C000006F107210611065106B10A9105F
:1000F00076107A108010841088108E10921096104E
:10010000A9109C10A010A4100000220025002800B7
:100110002B002E003100340002010000050108010F
:100120000B01000020002300260029002C002F00D6
:1001300032000001000003010601090100000A0B62
:1001400002090C0D0E080703040100000000000066
:10015000000000000000000000000000000000009F
:10016000000000000000000012111000000000005C
:10017000000000000000000000000000000000007F
:10018000000000002100240027002A002D0030007C
:10019000330001010000040107010A0101021020DF
:1001A00020080810204010204080020102010804AD
:1001B0000201010204081020408080402010080441
:1001C000020180040201804020100804020108049A
:1001D00002010102040810204080010204081020DE
:1001E0004080050505050705080808080202020207
:1001F0000A0A0808040404040101010101010101C3
:100200000303030303030303040707070C0C0C0C8D
:100210000C0C0C0C02020202060606060606060676
:100220000B0B0B0B0B0B0B0BA8238B2311241FBEEB
:10023000CFEFD1E2DEBFCDBF00E00CBF1EE0A0E0FB
:10024000B2E0EEE2F7E500E00BBF02C007900D92CE
:10025000A23DB107D9F722E1A2EDBEE001C01D9297
:10026000A137B207E1F711E0C5E1D1E000E006C037
:1002700021970109802FFE010E945E26C431D1071B
:1002800080E00807A9F70E94261A0C94862BB8CEA6
:10029000862F089581E086270895DC01ED91FC9179
:1002A000028CF38DE02D1994DC01ED91FC91048C0E
:1002B000F58DE02D199591E08927089508958CBD5D
:1002C0009DBD08952F923F924F925F926F927F92C1
:1002D0008F929F92AF92BF92CF92DF92EF92FF9256
:1002E0000F931F93CF93DF93CDB7DEB765970FB60C
:1002F000F894DEBF0FBECDBF7C016B013A01FB015C
:1003000020E080E090E06AE03191332309F140ED94
:10031000430F4A3080F4689FA001699F500D11245B
:10032000CA01C097830F911D37FD9A958F3F9105A4
:1003300059F350F313C03E3289F4233079F0D301DE
:10034000A20FB11D12968C932F5F80E090E0DCCF5E
:10035000233021F4F301858381E020C0F70142813D
:100360005381648175818091251090912610A09110
:100370002710B0912810481759076A077B0709F41E
:1003800084C1A9D68701085F1F4F6F7077277C5FF4
:10039000C8010E94530C813019F080E090E0D1C177
:1003A0008DE293E09A838983F70182819381A4810E
:1003B000B5818B839C83AD83BE8345E350E0BE0152
:1003C0006F5F7F4FC8010E94EA0C892B19F4C12C82
:1003D000D12C56C180D6F7017783668376276727AD
:1003E00076277A83698342E050E0BE016F5F7F4FDA
:1003F000C8013BD681E090E09E878D8742E050E0C7
:10040000BE01635F7F4FC80130D680E091E09E87D8
:100410008D8742E050E0BE01635F7F4FC80125D663
:100420001E861D8642E050E0BE01635F7F4FC8011B
:100430001CD642E050E0BE01635F7F4FC80115D675
:1004400042E050E0BE01635F7F4FC8010ED6560107
:10045000F5018081882301F1F6015F01819181110D
:1004600013C045018C189D081814190484F48F8654
:1004700041E050E0BE01615F7F4FC801F6D5A401A5
:10048000B601C801F2D503C08E3239F7EACF650153
:10049000FFEFCF1ADF0ADCCF1F8641E050E0BE013C
:1004A000615F7F4FC801E1D5C12CDD24D394DE8686
:1004B000CD8642E050E0BE01635F7F4FC801D5D5D5
:1004C000DE86CD8642E050E0BE01635F7F4FC8010B
:1004D000CCD5C8010E94A70C892B09F478CF63E022
:1004E000A62EB12CF2E06F0E711CF5D51B012C016C
:1004F000C801C5D7181619069CF0EDD5DC01CB0153
:1005000082199309A409B50989389341A105B10558
:10051000D0F462E370E080E090E00E94D213E8CF74
:10052000F7014281538164817581808D918DA28D07
:10053000B38D481759076A077B0741F4848D958D61
:10054000C59721F406C02FEF3FEF90C02EEF3FEF8D
:100550008DC0F70181A192A10C970CF49CC04CE0D6
:1005600050E0BE016F5F7F4FC80143D78B8190E0A1
:10057000982F88272C81822B9A8B898B298130E0B8
:10058000322F22274A81242BF701468157814217B7
:10059000530709F07DC097FF7BC08F709270892B45
:1005A00009F0CCC0CF80D12CDC2CCC248885C82A83
:1005B000C114D10409F4BFC0812C912C8D8190E02D
:1005C000982F88272E81822B8816990608F466C0FA
:1005D000812C912C41E050E0BE016D5E7F4FC8013F
:1005E00008D78B89982F907C09F084C0811178C03E
:1005F0008B898111EFCF42E050E0BE01615F7F4FF8
:10060000C801F7D642E050E0BE01635F7F4FC801EA
:10061000F0D6C8010CD7C8010AD7C80108D7C8014D
:1006200006D742E050E0BE016F5E7F4FC801E1D6C1
:100630008F8598898115914009F060C02D853E8590
:100640003227232732272130310509F057C0898905
:100650009A898115944009F06BC044E050E0B301E1
:10066000C8012C8B3D8BC5D62C893D896901F1E0F1
:10067000AF1AB10829F02FEFC216D20609F435CF10
:10068000C8010E943F0CC6015CC08EEF9FEF59C0AD
:100690002CEF3FEFEBCF2DEF3FEFE8CF41E050E005
:1006A000BE01635F7F4FC801A4D68D8581110FC045
:1006B0008D858111F3CFC801BAD6C801B8D6C8015B
:1006C000B6D6C801B4D6FFEF8F1A9F0A77CF8D85B3
:1006D0009FEF980F9D87882359F3C801A8D6F7CFBD
:1006E0008B899FEF980F9B8B882309F481CFC801DA
:1006F0009ED6F6CFC8019BD61B8A7ACF412C512CAF
:1007000089899A899827892798274816590630F4A5
:10071000C8018DD68FEF481A580AF2CFEFEF8E1A24
:100720009E0A8C149D0409F055CF26EF3FEF9ECF13
:1007300027EF3FEF9BCF2AEF3FEF98CF2BEF3FEF15
:1007400095CF65960FB6F894DEBF0FBECDBFDF9193
:10075000CF911F910F91FF90EF90DF90CF90BF90BE
:10076000AF909F908F907F906F905F904F903F9051
:100770002F900895CF92DF92EF92FF920F931F93E5
:10078000CF93DF93CDB7DEB7AF970FB6F894DEBF48
:100790000FBECDBF7C016A010DE213E01A8309830D
:1007A0001C861B8688EE93E0A0E0B0E08D879E87D4
:1007B000AF87B88B8FEA92E09A878987188F0F8B63
:1007C000198E1A8E1B8E1C8E84E089A31DA30CA388
:1007D0001EA21FA218A619A680911D1090911E108E
:1007E000A0911F10B09120108CA79DA7AEA7BFA706
:1007F0008B839C83AD83BE8318861F82AE014C5DC4
:100800005F4FCE0101965EDD81309105B1F4D701D5
:10081000ED91FC910484F585E02D1BA70AA78EA11C
:100820009FA1A8A5B9A58CA79DA7AEA7BFA7A60104
:10083000BE01665D7F4FC7011995AF960FB6F8945C
:10084000DEBF0FBECDBFDF91CF911F910F91FF9003
:10085000EF90DF90CF9008950F931F93CF93DF9386
:1008600000D000D0CDB7DEB78C01BC018EE79FE091
:100870000E94C212B801CE0101960E94EF1100E25F
:1008800011E1D801ED91FC910688F789E02DC801AE
:100890001995882331F0BE016F5F7F4FC8010E9418
:1008A000C212035F1F4FB1E1023A1B0751F7CE019D
:1008B00001960E94931126960FB6F894DEBF0FBEE4
:1008C000CDBFDF91CF911F910F910895EF92FF92CD
:1008D0000F931F93CF93DF93CDB7DEB76A970FB611
:1008E000F894DEBF0FBECDBF8B01BC01CE010796D1
:1008F000498F5A8F0E940812B801CE0101960E94BA
:10090000081269E375E0CE010D960E9408128D81F0
:100910009E81498D5A8D0097B9F08A018017910701
:1009200008F48C01E981FA81E00FF11FF080108258
:1009300069817A81CE010D960E947E1189819A810A
:10094000FC01E00FF11FF08289819A810097A9F0E4
:100950006D857E856115710571F04B815C812989FA
:100960003A894217530738F00E948D2889899A895D
:100970009E838D8312C00E94FB268D859E859A835F
:1009800089838F8598899C838B8389899A899E83A3
:100990008D831E861D86188A1F861A8A198ACE01A3
:1009A0000D960E94931164EC7BE0CE010D960E949F
:1009B0000812BE01695F7F4FCE010D960E946D1136
:1009C0006FEC7BE00E945611BE016F5F7F4F0E946B
:1009D0006D11BC01CE0143960E94EF11CE014396EA
:1009E0003BDFCE0143960E949311CE010D960E94EB
:1009F00093114B855C8541155105C1F04B30510574
:100A000010F4BA0102C06BE070E08F819885461B3C
:100A1000570B5C874B87680F791F0E949428EF81E2
:100A2000F8858B859C85E80FF91F10828F8198854A
:100A3000009719F00E948D2503C060E070E0CB01A3
:100A4000FB013197EE30F10570F58D819E818F01AC
:100A5000000F111F892BE9F0E980FA8068E07CE043
:100A6000C7010E948428892B41F481E090E0F801BD
:100A7000EE52F14F918380830CC062ED79E0C701A3
:100A80000E948428892B29F4F801EE52F14F11823B
:100A90001082D801AE52B14FF801E45EFD4F6C9167
:100AA00080810E946713CE0101960E949311CE01AE
:100AB00007960E9493116A960FB6F894DEBF0FBE98
:100AC000CDBFDF91CF911F910F91FF90EF900895CF
:100AD000CF92DF92EF92FF920F931F93CF93DF930A
:100AE00000D000D0CDB7DEB78EE00E943F13892B37
:100AF00039F081E090E09093EF0E8093EE0E6FC09E
:100B0000EAD20091560F1091570F2091580F309153
:100B1000590F601771078207930740F41092560F20
:100B20001092570F1092580F1092590F0091560FB4
:100B30001091570F2091580F3091590F6B017C0184
:100B4000C01AD10AE20AF30A49EEC41643E0D406F9
:100B5000E104F10408F43FC06093560F7093570FFF
:100B60008093580F9093590F84EF91E0A0E0B0E08C
:100B70008093DA119093DB11A093DC11B093DD1117
:100B800086ED91E10E9421144BE557E060E072E0B0
:100B900086ED91E1EFDD892B29F01092550F10922F
:100BA000540F19C063ED7BE0CE0101960E9408123C
:100BB000CE01019651DECE0101960E9493118091E3
:100BC000540F9091550F01969093550F8093540FA9
:100BD00005970CF08ECF1092EF0E1092EE0E269627
:100BE0000FB6F894DEBF0FBECDBFDF91CF911F913E
:100BF0000F91FF90EF90DF90CF9008950F931F9388
:100C0000CF93DF93CDB7DEB72C970FB6F894DEBF46
:100C10000FBECDBF8C0160EE7BE0CE0101960E943D
:100C20000812B801CE0101960E946D11BC01CE01DF
:100C300007960E94EF11CE0107960EDECE010796B1
:100C40000E949311CE0101960E94931141DF809181
:100C5000EE0E9091EF0E892B19F06BE475E066C0F3
:100C600086ED91E10E94211440E550E060E072E0E1
:100C700086ED91E17FDD892B09F456C06DEE7BE0B6
:100C8000CE0101960E940812CE010196E5DDCE014B
:100C900001960E9493116BEF7BE0CE0101960E94BA
:100CA0000812B801CE0101960E946D1160E07CE04F
:100CB0000E945611BC0186ED91E10E94C212CE0144
:100CC00001960E94931160E072E0CE0107960E94A7
:100CD00008126AE07CE0CE0101960E940812BE0173
:100CE000695F7F4FCE0101960E946D11BC0186EDB8
:100CF00091E10E94C212CE0101960E949311CE0191
:100D000007960E94931161E17CE086ED91E10E94DB
:100D1000B11268EA75E086ED91E10E94B11286EDAC
:100D200091E10E94AD120DC069E27CE0CE01019616
:100D30000E940812CE0101968FDDCE0101960E941D
:100D400093112C960FB6F894DEBF0FBECDBFDF9186
:100D5000CF911F910F910895CF92DF92EF92FF9262
:100D60000F931F93CF93DF93CDB7DEB728970FB6BE
:100D7000F894DEBF0FBECDBF6BE37CE0CE010196E1
:100D80000E940812CE01019667DDCE0101960E94F5
:100D900093119EDE8091EE0E9091EF0E892B19F04B
:100DA00061E57CE0E2C06FE57CE0CE0101960E9447
:100DB0000812CE01019650DDCE0101960E949311DA
:100DC0000E94E1178111DDC089EC91E10E9421149C
:100DD0000E94E1178111D5C060911811709119110D
:100DE000809183109091841040911A1150911B11A1
:100DF000DC01ED91FC916115710521F00684F78508
:100E0000E02D16C00484F585E02D2DE233E03A8311
:100E10002983009114111091151120911611309110
:100E200017110B831C832D833E83BE016F5F7F4FA1
:100E300019958130910509F090C090930611809327
:100E4000051187E0E4E5F2E0DE01119601900D92D4
:100E50008A95E1F7FE013196AAE8B0E18E01085FBC
:100E60001F4F81918D93E017F107D9F782E08093AE
:100E70009110109292108FE0809393104FE050E009
:100E800065E870E18BE69CE00E941618AC014550C5
:100E9000510965E870E180E10E9437181CD1609328
:100EA0000711709308118093091190930A116093B0
:100EB0000B1170930C1180930D1190930E11809172
:100EC000831090918410DC01ED91FC910480F581F8
:100ED000E02D1995892BB9F4FED0C0900B11D0905C
:100EE0000C11E0900D11F0900E11DC01CB018C196A
:100EF0009D09AE09BF0988399A43A105B105F8F2E9
:100F00008CEF9FEF1AC0C8010E9401190497C9F421
:100F100080918810811110C0DED060930B11709306
:100F20000C1180930D1190930E1110920F111092CD
:100F30001F1110921E1125C090E090931F118093F5
:100F40001E118091831090918410DC01ED91FC9131
:100F50000288F389E02D199506C08EEF9FEF9093DC
:100F60001F1180931E1166E77CE0CE0101960E945E
:100F70000812CE01019670DCCE0101960E949311F9
:100F800039C06CE77CE0CE0101960E940812CE01C8
:100F9000019662DCCE0101960E9493110E94E11736
:100FA000882341F18091051190910611019611F469
:100FB00081E090E0909306118093051180910511D6
:100FC0009091061190938A1080938B1047E050E027
:100FD00065E870E187E89CE00E941618FC01ED5777
:100FE000FF4E1282AC014450510965E870E182E87D
:100FF0000E94371828960FB6F894DEBF0FBECDBFFB
:10100000DF91CF911F910F91FF90EF90DF90CF90E4
:1010100008956115710579F0FB0101900020E9F751
:101020003197AF01461B570BDC01ED91FC9102801B
:10103000F381E02D199480E090E0089508951F93C6
:10104000CF93DF93182F66E270E061D4C82FD0E011
:1010500067E270E0812F5BD4DC2FCC279E01282B28
:10106000C901DF91CF911F910895AF92BF92CF92A6
:10107000DF92FF920F931F93CF93DF938C015B015D
:10108000EA01FC01C688D788F08C80E590E017D98A
:101090008F2D0E945D178C179D0720F48F2D0E94C5
:1010A0005D17EC019E01A501B6018F2D0E94F81677
:1010B00005D9F801868997898C0F9D1F978B868BA0
:1010C000CE01DF91CF911F910F91FF90DF90CF90D4
:1010D000BF90AF9008952FB7F89460915D0F709115
:1010E0005E0F80915F0F9091600F2FBF08951F9248
:1010F0000F920FB60F9211242F933F938F939F93CC
:10110000AF93BF9380915D0F90915E0FA0915F0FA1
:10111000B091600F30915C0F23E0230F2D3720F446
:101120000196A11DB11D05C026E8230F0296A11D41
:10113000B11D20935C0F80935D0F90935E0FA09381
:101140005F0FB093600F8091690F90916A0FA0912B
:101150006B0FB0916C0F0196A11DB11D8093690FAB
:1011600090936A0FA0936B0FB0936C0FBF91AF91E8
:101170009F918F913F912F910F900FBE0F901F90D5
:1011800018952C9A08952C9808951F93CF93DF9368
:10119000182F60E270E0BBD3C82FD0E061E270E0AE
:1011A000812FB5D3DC2FCC279E01282BC901DF91DD
:1011B000CF911F9108958EBD00000DB407FEFDCFA5
:1011C0008EB50895CF92DF92EF92FF920F931F9307
:1011D000CF93DF93EC017A018B016C01C40ED51E15
:1011E000CC15DD0579F0CFDF8FE0E5DF8D2FE3DF74
:1011F0008C2FE1DF219680E0DEDFF80181938F0103
:10120000C0DFEECFC701DF91CF911F910F91FF900B
:10121000EF90DF90CF900895CF92DF92EF92FF9200
:101220000F931F93CF93DF93EC017A018B016C0135
:10123000C40ED51ECC15DD0571F0A5DF80EFBBDF38
:101240008D2FB9DF8C2FB7DF2196F80181918F01A7
:10125000B2DF97DFEFCFC701DF91CF911F910F91E1
:10126000FF90EF90DF90CF9008951F93CF93DF937F
:101270001F921F92CDB7DEB7182F6A83998383DF41
:1012800080EF99DF9981892F96DF812F94DF6A8122
:10129000862F91DF76DF81E00F900F90DF91CF9165
:1012A0001F9108951F93CF93DF931F921F92CDB785
:1012B000DEB7182F80E590E069837A8300D821E0BB
:1012C00041E050E069817A81812F0E9479170E9464
:1012D0005E0181E090E00F900F90DF91CF911F9120
:1012E0000895CF93DF931F92CDB7DEB7FC01218D18
:1012F000328D232B41F0BE016F5F7F4F808DD2DF97
:10130000898190E002C08FEF9FEF0F90DF91CF9126
:101310000895FF920F931F93CF93DF93F82E80E5EC
:1013200090E00E945F01C0E0D0E08F2D88DE8C014C
:10133000892B19F08F2D83DEEC01C017D107A9F797
:101340000E945E01CE01DF91CF911F910F91FF901E
:101350000895AF92BF92CF92DF92EF92FF921F93C8
:10136000CF93DF93182F5B017A0180E590E00E9414
:101370005F01C0E0D0E0812F62DE6C01892B19F0A3
:10138000812F5DDEEC01CC15DD05A9F7209791F4E6
:1013900063E070E0812FBBD28431F1F08823E1F06B
:1013A000C1E0D0E08C3111F4C0E0D0E0D195C1951E
:1013B000D10912C0EC16FD060CF4E7011C161D063F
:1013C0005CF420E0AE01B501812F0E94791760E442
:1013D00070E0812F0E94E8160E945E01CE01DF912D
:1013E000CF911F91FF90EF90DF90CF90BF90AF9083
:1013F0000895CF93DF93FC01218D328D21153105A6
:1014000019F48FEF9FEF10C0EC014217530708F05B
:10141000A901888D9EDF181619069CF7298D3A8D33
:10142000281B390B3A8F298FDF91CF9108950F93A5
:101430001F93CF93DF931F92CDB7DEB7FC01218DB1
:10144000328D232B59F08C0141E050E0BE016F5FDB
:101450007F4F808D7EDF181619061CF08FEF9FEFEF
:1014600008C0F801818D928D0197928F818F8981BB
:1014700090E00F90DF91CF911F910F9108950F93FE
:101480001F93CF93DF93CDB7DEB728970FB6F894AD
:10149000DEBF0FBECDBF8C01F801818D928D892BEF
:1014A00049F0D801ED91FC910680F781E02DC8014B
:1014B0001995F2CF808D2DDF1816190654F548E0E6
:1014C00050E0BE016F5F7F4FD80158968C9141DF8D
:1014D0009C0118161906DCF489819A81AB81BC81C4
:1014E000F801808B918BA28BB38B8D8190E0982F2C
:1014F00088272E81820F911D958B848B2F8130E060
:10150000322F22278885280F311D328F218FC90164
:1015100002C080E090E028960FB6F894DEBF0FBEC0
:10152000CDBFDF91CF911F910F910895CF93C82F19
:1015300080E590E00E945F0160E170E08C2F0E94E6
:10154000E8164FEF62E070E08C2FD8D1CF910C9469
:101550005E01FF920F931F93CF93DF931F921F9211
:10156000CDB7DEB7F82E8A012A836983DFDF80E5F5
:1015700090E00E945F012A816981462F422B60E042
:1015800070E08F2DBBD10115110551F400915A0F58
:1015900010915B0F0F5F1F4F10935B0F00935A0F5B
:1015A000412F64E070E08F2DA9D1402F65E070E0FD
:1015B0008F2DA4D161E070E08F2D0E94E8160E946B
:1015C0005E0181E00F900F90DF91CF911F910F91FD
:1015D000FF900895BF92CF92DF92EF92FF920F9308
:1015E0001F93CF93DF9300D000D0CDB7DEB7FC01BF
:1015F000208D243009F04EC06A017B018C01B12C92
:1016000063E070E08B2D83D1811103C0F801B08EAF
:1016100006C08831D9F3B394F4E0BF12F1CFF801DA
:10162000808D8430B9F196E0EBE5F2E0DE011196B1
:1016300001900D929A95E1F7F70193819F779C8332
:1016400094819D8395819E83B7016E5F7F4F90E06B
:10165000982F882744E050E0845F9B4FDDDDB60182
:10166000F801808DA8D1F801808D90E0982F88270F
:1016700046E050E0BE016F5F7F4F8A5F9B4FCCDD3D
:10168000F801128E118E20E8A60162E0808D61DFE4
:1016900081E001C080E026960FB6F894DEBF0FBE51
:1016A000CDBFDF91CF911F910F91FF90EF90DF9011
:1016B000CF90BF9008951F93CF93DF931F92CDB724
:1016C000DEB7182F80E590E00E945F0163E070E0D4
:1016D000812F1DD189830E945E0189810F90DF9146
:1016E000CF911F910895CF93DF931F92CDB7DEB7AF
:1016F0006983DC01ED91FC910280F381E02D41E0F2
:1017000050E0BE016F5F7F4F19950F90DF91CF9131
:101710000895FC01818D928D0895FC01848995893D
:1017200008952DE233E0FC0131832083FB014089E1
:10173000518962897389FC01428353836483758371
:10174000089580E00895CF93DF931F92CDB7DEB761
:101750006983DC01ED91FC910280F381E02D41E091
:1017600050E0BE016F5F7F4F19950F90DF91CF91D1
:101770000895FC019485FB018485981303C081E0E2
:10178000943009F480E0089521E0FC0184858430E0
:1017900009F420E0822F0895CF92DF92EF92FF921A
:1017A0000F931F93CF93DF93CDB7DEB7AF970FB6ED
:1017B000F894DEBF0FBECDBF7C016A010DE213E0DD
:1017C0001A8309831C861B8688EE93E0A0E0B0E0B4
:1017D0008D879E87AF87B88B8FEA92E09A8789873B
:1017E000188F0F8B198E1A8E1B8E1C8E84E089A386
:1017F0001DA30CA31EA21FA218A619A680911D103E
:1018000090911E10A0911F10B09120108CA79DA741
:10181000AEA7BFA78B839C83AD83BE8318861F8230
:10182000AE014C5D5F4FCE0101960E946201813096
:101830009105B1F4D701ED91FC910288F389E02D77
:101840001BA70AA78EA19FA1A8A5B9A58CA79DA794
:10185000AEA7BFA7A601BE01665D7F4FC701199560
:10186000AF960FB6F894DEBF0FBECDBFDF91CF911C
:101870001F910F91FF90EF90DF90CF900895CF933D
:10188000DF93EC01888D843059F050DEE88DF0E074
:10189000EE0FFF1FEF59F04F1182108284E0888F06
:1018A000DF91CF910895EF92FF921F93CF93DF9333
:1018B000FC01208D243011F080E01AC07B01EC0186
:1018C00010E0812FF8DE811102C0188F05C0883129
:1018D000E1F31F5F1430A9F7888D843069F3FD862A
:1018E000EC861A8E198E20E0A70162E032DE81E0DC
:1018F000DF91CF911F91FF90EF9008959B0190E0B1
:101900000496982F8827642F820F931FAECC0F93D5
:101910001F93CF93DF931F92CDB7DEB790E004966D
:10192000982F88278C01060F171F2DDC8FE043DCD2
:10193000812F41DC802F3FDC80E03DDC898321DC8E
:1019400089810F90DF91CF911F910F910895CF93CF
:10195000FC01C08D80E590E00E945F0160E270E0D4
:101960008C2F0E94E81662E070E08C2FD0DF84FD9F
:1019700017C062E070E08C2FCADF83FF0AC048E125
:1019800062E070E08C2FBADF0E945E0180E090E0A0
:1019900010C00E945E0180E590E00E945F01E3CFED
:1019A00040E162E070E08C2FA9DF0E945E0181E0DF
:1019B00090E0CF910895CF93DF93C82FD62F472F74
:1019C00060E170E09BDF4D2F61E170E08C2FDF91D3
:1019D000CF9194CFFF920F931F93CF93DF93FB018F
:1019E000DC0157961C921E9256975896FC90828165
:1019F000811109C08381811106C08481811103C0D6
:101A000085818823E9F041155105D1F08A01EF0164
:101A100080E590E00E945F01BE016E5F7F4F2F2D39
:101A200030E0922F882744E050E0845F9B4FF4DB46
:101A3000B8018F2DC0DF0E945E0181E090E002C0FE
:101A400080E090E0DF91CF911F910F91FF9008957A
:101A5000FC018485843009F02ECE80E008954F92F9
:101A60005F926F927F928F929F92AF92BF92CF922E
:101A7000DF92EF92FF921F93CF93DF93CDB7DEB744
:101A80002D970FB6F894DEBF0FBECDBF7C0191E657
:101A9000A92E9FE0B92E10E0C12CD12C28EE422EA9
:101AA00023E0522E612C712C39E0832E33E0932EEB
:101AB0001C821B824D825E826F8278869A82898226
:101AC0001D87D5012D913D915D01F701848195819F
:101AD0002817390799F4CE010196BADF843159F0FD
:101AE000CE010196B5DF8C3149F4CE0101962FD796
:101AF000892B91F003C0CC24C394D12C1F5F1430E8
:101B0000B9F6CD2869F4D701ED91FC910480F581F7
:101B1000E02DC701199504C0CE01019692D6EECFF3
:101B20002D960FB6F894DEBF0FBECDBFDF91CF91DB
:101B30001F91FF90EF90DF90CF90BF90AF909F905C
:101B40008F907F906F905F904F9008952F923F926B
:101B50004F925F926F927F928F929F92AF92BF92BD
:101B6000CF92DF92EF92FF920F931F93CF93DF9369
:101B7000CDB7DEB72E970FB6F894DEBF0FBECDBF40
:101B80007C016B015A016BDF01E61FE020E0612C54
:101B9000712C88EE282E83E0382E412C512C99E0B0
:101BA000892E93E0992E1C821B822D823E824F82C9
:101BB00058869A8289822D87F801419151918F012F
:101BC000F701848195814817590739F4CE010196B0
:101BD0002E873EDF2E858731E9F02F5F243019F7FD
:101BE000C3012E960FB6F894DEBF0FBECDBFDF91B6
:101BF000CF911F910F91FF90EF90DF90CF90BF900A
:101C0000AF909F908F907F906F905F904F903F909C
:101C10002F900895A501B601CE0101962E87A0D67A
:101C2000680E791E2E85D9CF4F925F926F927F9268
:101C30008F929F92AF92BF92CF92DF92FF920F93BB
:101C40001F93CF93DF93CDB7DEB72D970FB6F894E0
:101C5000DEBF0FBECDBF8C015B01CB0100DF81E693
:101C6000C82E8FE0D82EF12C98EE492E93E0592EF5
:101C7000612C712C29E0822E23E0922E1C821B8283
:101C80004D825E826F8278869A828982FD86F60115
:101C9000219131916F01F5018481958128173907D0
:101CA00041F5CE010196D4DE873111F08C3109F572
:101CB000CE0101964CD6892BE1F08B819C81F801F5
:101CC000938382838D819E81AF81B8858483958340
:101CD000A683B78389859A85AB85BC8580879187E4
:101CE000A287B38789E093E0918380838D85848781
:101CF00014C0F394F4E0FF12C1CFF80113821282F2
:101D000088EE93E0A0E0B0E084839583A683B78358
:101D100089E093E091838083F486C8012D960FB605
:101D2000F894DEBF0FBECDBFDF91CF911F910F9111
:101D3000FF90DF90CF90BF90AF909F908F907F905B
:101D40006F905F904F9008958F929F92AF92BF9245
:101D5000CF92DF92EF92FF920F931F93CF93DF9377
:101D6000CDB7DEB72D970FB6F894DEBF0FBECDBF4F
:101D70007C0100E010E038EE832E33E0932EA12C9E
:101D8000B12C49E0C42E43E0D42E1C821B828D82EC
:101D90009E82AF82B886DA82C9820D87CE01019613
:101DA00057DE811123C0F7014481558120E061E0B5
:101DB000802FCFDB80E590E00E945F0163E070E060
:101DC000802FA5DD833129F462E070E0802F0E942E
:101DD000E8160E945E01F70184819581000F111FB2
:101DE000F801EF59F04F9183808305C00F5F1F4FBB
:101DF0000430110551F62D960FB6F894DEBF0FBED4
:101E0000CDBFDF91CF911F910F91FF90EF90DF90A9
:101E1000CF90BF90AF909F908F900895CF93DF9316
:101E2000FC0124852430C9F0EC0112DE843181F0FC
:101E3000882371F0883161F08C3161F4E881F98197
:101E40000480F581E02DCE01199521E0892B19F44C
:101E500020E001C021E0822F01C080E0DF91CF911E
:101E600008950895CF92DF92EF92FF920F931F9300
:101E7000CF93DF936C017A018B01C0E0D0E0CE15E7
:101E8000DF0589F0D8016D918D01D601ED91FC91AE
:101E90000190F081E02DC6011995892B11F47E0186
:101EA00002C02196ECCFC701DF91CF911F910F9116
:101EB000FF90EF90DF90CF900895FC01918D828D7F
:101EC000981761F0828DDF01A80FB11D5D968C918E
:101ED000928D9F5F9F73928F90E008958FEF9FEF99
:101EE0000895FC01918D828D981731F0828DE80F55
:101EF000F11D858D90E008958FEF9FEF0895FC010F
:101F0000918D228D892F90E0805C9F4F821B9109DB
:101F10008F73992708958EE79FE0F1DF21E0892BE9
:101F200009F420E0822F0895FC01848DDF01A80FC1
:101F3000B11DA35ABF4F2C91848D90E001968F73F1
:101F40009927848FA689B7892C93A089B1898C9110
:101F500080648C93938D848D981306C00288F389D6
:101F6000E02D80818F7D80830895EF92FF920F9303
:101F70001F93CF93DF93EC0181E0888F9B8D8C8D35
:101F8000981305C0E889F989808185FD23C0F62E64
:101F90000B8D10E00F5F1F4F0F731127E02E8C8DFC
:101FA000E8120BC00FB607FCFACFE889F9898081E7
:101FB00085FFF5CFCE01B8DFF2CF8B8DFE01E80FA4
:101FC000F11DE35AFF4FF0820B8FEA89FB89808174
:101FD000806207C0EE89FF896083E889F989808182
:101FE0008064808381E090E0DF91CF911F910F9119
:101FF000FF90EF900895CF93DF93EC01888D8823B5
:10200000C1F0EA89FB89808185FD05C0A889B9896D
:102010008C9186FD0EC00FB607FCF5CF808185FF41
:10202000F2CFA889B9898C9185FFEDCFCE017CDFF5
:10203000E8CFDF91CF91089580E090E0892B19F0EF
:102040006ADF811125C080E090E0892B41F080E0BB
:1020500090E0892B21F00E94000081111CC080E0DB
:1020600090E0892B41F080E090E0892B21F00E94E4
:102070000000811113C080E090E0892BA1F080E086
:1020800090E0892B81F00E94000081110AC0089520
:102090000E940000D8CF0E940000E1CF0E94000003
:1020A000EACF0C940000089590E0FC013197E231F2
:1020B000F10508F04EC08827EE58FF4F8F4F0C9463
:1020C0005E26809180008F7703C0809180008F7D95
:1020D00080938000089580918000877FF9CF84B538
:1020E0008F7702C084B58F7D84BD08958091B00044
:1020F0008F7703C08091B0008F7D8093B0000895EA
:10210000809190008F7707C0809190008F7D03C0F1
:1021100080919000877F8093900008958091A00027
:102120008F7707C08091A0008F7D03C08091A000B1
:10213000877F8093A0000895809120018F7707C04A
:10214000809120018F7D03C080912001877F809343
:10215000200108953FB7F8948091690F90916A0F1C
:10216000A0916B0FB0916C0F26B5A89B05C02F3FB7
:1021700019F00196A11DB11D3FBFBA2FA92F982FAD
:102180008827820F911DA11DB11DBC01CD0142E028
:10219000660F771F881F991F4A95D1F708950E94EF
:1021A00077280F931F93CF93DF93EC018881998158
:1021B000009729F02A813B812617370788F48B0185
:1021C0006F5F7F4F0E949327009761F09983888308
:1021D0001B830A832C813D81232B11F4FC01108287
:1021E00081E001C080E0DF91CF911F910F910895B0
:1021F000CF93DF93EC0188819981009711F00E94C1
:10220000FB26198218821D821C821B821A82DF9192
:10221000CF910895EF92FF920F931F93CF93DF9387
:10222000EC017B018A01BA01BCDF811103C0CE0140
:10223000DFDF07C01D830C83B701888199810E946D
:102240008D28CE01DF91CF911F910F91FF90EF90DC
:102250000895EF92FF920F931F93CF93DF93FC01AA
:10226000248135816115710511F480E018C0411594
:102270005105A1F07B01EC018A01020F131FB80187
:1022800090DF882391F3288139818C819D81B7016A
:10229000820F931F0E948D281D830C8381E0DF91A4
:1022A000CF911F910F91FF90EF900895CF93DF93FF
:1022B000EC016115710559F0FB0101900020E9F76F
:1022C0003197AF01461B570BC4DF811102C0CE010D
:1022D0008FDFCE01DF91CF910895CF93DF93EC0193
:1022E000FB014481558160817181B3DF811102C09E
:1022F000CE017EDFCE01DF91CF910895CF93DF93A2
:10230000EC016115710551F0FB0101900020E9F726
:102310003197AF01461B570B7DDF01C069DFCE014E
:10232000DF91CF910895FC01808191810C94FB266F
:102330000F931F93CF93DF93CDB7DEB762970FB69E
:10234000F894DEBF0FBECDBF8C01CB01F801118226
:102350001082138212821582148250E0BE016F5FD8
:102360007F4F0E94B325BE016F5F7F4FC801C6DF5C
:1023700062960FB6F894DEBF0FBECDBFDF91CF914E
:102380001F910F9108950F931F93CF93DF93CDB7B4
:10239000DEB729970FB6F894DEBF0FBECDBF8C0114
:1023A000862FF80111821082138212821582148204
:1023B00050E0BE016F5F7F4F90E00E94DC25BE01C0
:1023C0006F5F7F4FC8019ADF29960FB6F894DEBF82
:1023D0000FBECDBFDF91CF911F910F910895FB01EB
:1023E000DC0111961C921E9213961C921E9212975B
:1023F00015961C921E9214978617970741F06081DC
:1024000071816115710519F04481558103CF0895DB
:10241000FC011182108213821282158214826115CE
:10242000710549F0FB0101900020E9F73197AF01F8
:10243000461B570BEFCE08954F925F926F927F929B
:10244000EF92FF920F931F93CF93DF93CDB7DEB739
:10245000A1970FB6F894DEBF0FBECDBF7C01FA0185
:10246000CB0119A2223008F42AE08E010F5D1F4F24
:10247000422E512C612C712CBF01A30192010E94AC
:102480001926F901CA01015011096A3014F4605D7E
:1024900001C0695CD8016C93232B242B252B61F799
:1024A000B801C7010E940908A1960FB6F894DEBFD3
:1024B0000FBECDBFDF91CF911F910F91FF90EF9095
:1024C0007F906F905F904F9008958F929F92AF9200
:1024D000BF92CF92DF92EF92FF920F931F93CF9311
:1024E000DF937C01EB016C0182E0C80ED11C470137
:1024F000E5E08E0E911C00E010E0F60141916F01C5
:1025000050E060E070E02AE0CE0196DF5C01E881F7
:10251000F9810190F081E02D6EE2CE0119958A0DCE
:102520009B1D080F191FC814D90439F7F7014581FD
:1025300050E060E070E02AE0CE017EDF800F911F66
:10254000DF91CF911F910F91FF90EF90DF90CF908F
:10255000BF90AF909F908F90089567E375E00C94C3
:1025600009080F931F93CF93DF93EC010E94090892
:102570008C01CE01F2DF800F911FDF91CF911F916F
:102580000F9108950F931F93CF93DF93EC01E88190
:10259000F981DB0114964D915C9115976D917C91B9
:1025A0000280F381E02D19958C01CE01D6DF800FDA
:1025B000911FDF91CF911F910F9108950C940908FD
:1025C0001F920F920FB60F9211240BB60F922F93FA
:1025D0003F934F935F936F937F938F939F93AF93AB
:1025E000BF93EF93FF938EE79FE09EDCFF91EF9107
:1025F000BF91AF919F918F917F916F915F914F911B
:102600003F912F910F900BBE0F900FBE0F901F9018
:1026100018951F920F920FB60F9211240BB60F92BE
:102620002F938F939F93EF93FF93E0918E0FF091F1
:102630008F0F8081E091940FF091950F82FD12C071
:1026400090818091970F8F5F8F732091980F8217E1
:1026500051F0E091970FF0E0E258F04F958F8093A2
:10266000970F01C08081FF91EF919F918F912F91E2
:102670000F900BBE0F900FBE0F901F901895CF9329
:10268000DF93282F30E0F901E45CFE4F8491F901DB
:10269000E456FE4FD491F901EE51FE4FC491CC2384
:1026A00089F0811101DDEC2FF0E0EE0FFF1FEE5DF0
:1026B000FE4FA591B491EC91ED2381E090E021F4DF
:1026C00080E002C080E090E0DF91CF9108951F93F9
:1026D000CF93DF93282F30E0F901E45CFE4F849123
:1026E000F901E456FE4FD491F901EE51FE4FC49129
:1026F000CC23C1F0162F8111D7DCEC2FF0E0EE0FC8
:10270000FF1FE85FFE4FA591B4918FB7F8941111A8
:1027100005C09C91ED2FE095E92302C0EC91ED2BD3
:10272000EC938FBFDF91CF911F910895CF93DF93EB
:1027300090E0FC01E456FE4F2491FC01EE51FE4F67
:102740008491882361F190E0880F991FFC01EE5776
:10275000FE4FC591D491FC01E85FFE4FA591B49165
:10276000611109C09FB7F8948881209582238883DE
:10277000EC912E230BC0623061F49FB7F89438813E
:10278000822F809583238883EC912E2B2C939FBFDF
:1027900006C08FB7F894E8812E2B28838FBFDF9176
:1027A000CF9108958F929F92AF92BF92CF92DF9276
:1027B000EF92FF926B017C01CDDC4B015C01C114F7
:1027C000D104E104F104E9F0C5DCDC01CB01881996
:1027D0009909AA09BB09883E9340A105B10578F380
:1027E00021E0C21AD108E108F10888EE880E83E0E2
:1027F000981EA11CB11CC114D104E104F10421F7FD
:10280000DECFFF90EF90DF90CF90BF90AF909F9082
:102810008F9008950895CF93DF931F92CDB7DEB7C1
:102820006983DC01ED91FC910280F381E02D41E0B0
:1028300050E0BE016F5F7F4F19950F90DF91CF91F0
:102840000895CF92DF92EF92FF921F93CF93DF9381
:10285000FC011485143091F1EC0180E590E00E94B8
:102860005F0168E070E0812FB3D20E945E010E9498
:102870006B086B017C01CE01EBD88823A9F061E0E5
:1028800070E080E090E08EDF0E946B08DC01CB01FD
:102890008C199D09AE09BF09883E9340A105B10579
:1028A00050F38C850E94960AEC85F0E0EE0FFF1F36
:1028B000EF59F04F1182108284E08C87DF91CF9125
:1028C0001F91FF90EF90DF90CF9008950F931F938B
:1028D000CF93DF931F92CDB7DEB78C01DC01ED9172
:1028E000FC910480F581E02D1995892B51F0BE01F2
:1028F0006F5F7F4FF80184850E945209898190E0C3
:1029000002C08FEF9FEF0F90DF91CF911F910F913A
:102910000895FC0184850C94A909CF93DF931F923D
:10292000CDB7DEB741E050E0BE016F5F7F4FFC01E5
:1029300084850E94A909181619061CF4898190E063
:1029400002C08FEF9FEF0F90DF91CF910895FC01B0
:102950008485843011F00C94890980E090E008951A
:102960008F929F92AF92BF92CF92DF92EF92FF929F
:102970000F931F93CF93DF936C015B017A01FC01EE
:10298000C485C43041F481E090E0F60193838283F2
:1029900080E090E054C08A014130584010F000E0DF
:1029A00018E080E590E00E945F018C2F86D24C01F8
:1029B00063E070E08C2F0E94870CD82F0E945E018C
:1029C000D73111F0DC3121F48016910650F302C0AA
:1029D00000E010E080E590E00E945F019801A50111
:1029E00060E070E08C2F04D260E270E08C2FF0D1B8
:1029F00062E070E08C2F0E94870C84FD14C063E0BD
:102A000070E08C2F0E94870C811106C00E945E012D
:102A10008C2F0E94960AB7CF0E945E0180E590E05D
:102A20000E945F01E5CF40E162E070E08C2F0E94E0
:102A30007E0C0E945E01012B09F4A5CFC701DF9136
:102A4000CF911F910F91FF90EF90DF90CF90BF90AB
:102A5000AF909F908F900895CF92DF92FF920F9347
:102A60001F93CF93DF93FC012485243009F077C0B6
:102A70006A01EB018C01F12C8F2D0E945B0B8111FF
:102A800003C0F801F48607C08B7F8831D1F3F3943B
:102A9000F4E0FF12F1CFF8018485843009F45FC0BF
:102AA00020910E0230910F022F5F3F4F11F420E072
:102AB00030EC30930F0220930E0240910E025091A1
:102AC0000F0220E061E00E94A90AF801F4848A81E3
:102AD0008F3F51F48B818F3F91F48C818F3F79F43C
:102AE0008D818F3F61F438C0811109C08B818111C4
:102AF00006C08C81811103C08D81882369F1C114C6
:102B0000D10451F180E590E00E945F01BE016E5F4B
:102B10007F4F8F2D90E0982F882744E050E0845F0E
:102B20009B4F0E940C09B6018F2D0E94DB0C64E0C4
:102B300070E08F2D4DD10E945E01C8010E94280DCA
:102B4000873181F061E070E080E090E02BDEC80129
:102B50000E94280D8111F1CF84E0F801848780E084
:102B600090E002C081E090E0DF91CF911F910F9142
:102B7000FF90DF90CF900895CF92DF92EF92FF9277
:102B80000F931F93CF93DF93CDB7DEB7C254D10914
:102B90000FB6F894DEBF0FBECDBFFC0182819381DA
:102BA000A481B58123968CAF9DAFAEAFBFAF239705
:102BB00021E023962FAF239723964CAD5DAD6EADEC
:102BC0007FAD23974BAB5CAB6DAB7EAB89AF9AAF60
:102BD000ABAFBCAF8DA79EA7AFA7B8AB28AB4DA539
:102BE0005EA56FA578A94FA358A769A77AA72EABB2
:102BF0004BA95CA96DA97EA949A35AA36BA37CA389
:102C00008B8F9C8FAD8FBE8F4DE253E05C8B4B8BD7
:102C10003FEF3D8B3E8B3F8B188E5E874D872AA7FB
:102C2000CFA0D8A4E9A4FAA4CF86D88AE98AFA8AE0
:102C30002CA309A11AA12BA13CA109871A872B87D4
:102C40003C875A8349838B839C83AD83BE836CE22C
:102C500071E080E090E0A6DD1FB7F89480917D0FD1
:102C6000811123C0E7E1F2E08491E1EDF1E094917C
:102C7000E82FF0E0EE0FFF1FEE57FE4FA591B49145
:102C8000EC91E92319F461E085E321DD61E085E35E
:102C90004DDD8CB580618CBD8CB580648CBD61E0F0
:102CA00084E344DD61E083E341DD80917D0F8F5F4C
:102CB00080937D0F1FBF249A80E590E00E945F0102
:102CC00060E880E090E00E94350965E58BE190E0E6
:102CD0000E94350965E58AE190E00E9435090E946D
:102CE0005E0180E090E490936E0F80936D0F80E022
:102CF00090E69093760F8093750F80E098E4909320
:102D0000700F80936F0F80E098E69093780F809318
:102D1000770F80E090E59093720F8093710F80E0C1
:102D200090E790937A0F8093790F80E098E59093E5
:102D3000740F8093730F80E098E790937C0F8093DB
:102D40007B0F80E590E00E945F0146E050E060E18B
:102D500072E089E090E00E940C0944E050E0BE017E
:102D60006D5F7F4F8FE090E00E940C0944E050E0DF
:102D7000BE01615F7F4F81E090E00E940C0944E05A
:102D800050E0BE016B5E7F4F85E090E00E940C0931
:102D90000E945E0181E08C8789859A85AB85BC8520
:102DA00080931D1090931E10A0931F10B0932010BD
:102DB000CE5BDF4F0FB6F894DEBF0FBECDBFDF9105
:102DC000CF911F910F91FF90EF90DF90CF900895DA
:102DD000CF93C82F462F61E070E00E947E0C61E027
:102DE00070E08C2F0E94870C8111F9CFCF9108954C
:102DF0009F92AF92BF92CF92DF92EF92FF920F938A
:102E00001F93CF93DF93982E8B015A01690164E2DF
:102E100070E00E94870CE82EF12C65E270E0892DAD
:102E20000E94870CFE2CEE24E82AE701C00FD11F78
:102E30009E013770E92CF12CC701880F991FAC0156
:102E40004359504F7A01FA0180819181820F931F7B
:102E5000A9014C0D5D1D4130584090F000E018E094
:102E6000021B130BA801B5010E940C09A601401B0F
:102E7000510BB501600F711FF7018081918102C074
:102E8000A601B5010E940C09CC0DDD1D4D2F64E299
:102E900070E0892D0E947E0C4C2F65E270E0892D38
:102EA000DF91CF911F910F91FF90EF90DF90CF9026
:102EB000BF90AF909F900C947E0CFF920F931F9346
:102EC000CF93DF93F82EC0E0D0E08F2D0E94C5088D
:102ED0008C01892B21F08F2D0E94C508EC01C017B1
:102EE000D10799F7CE01DF91CF911F910F91FF90FC
:102EF00008958F929F92AF92BF92CF92DF92EF92FE
:102F0000FF920F931F93CF93DF93B82E4B018A014B
:102F1000A22E68E270E00E94870CC82FD0E069E220
:102F200070E08B2D0E94870CDC2FCC27C82B9E01D4
:102F30003770CB2CD12CC601880F991FAC014B5890
:102F4000504F6A01FA0180819181820F931FA8017D
:102F5000420F531F4130584098F060E078E07B0109
:102F6000E21AF30AA701B4010E94E208A8014E196F
:102F70005F09B4016E0D7F1DF6018081918102C051
:102F8000A801B4010E94E208A1100EC0C00FD11F19
:102F90004D2F68E270E08B2D0E947E0C4C2F69E271
:102FA00070E08B2D0E947E0CDF91CF911F910F91CD
:102FB000FF90EF90DF90CF90BF90AF909F908F9059
:102FC00008958091831090918410009759F1DC014D
:102FD000ED91FC910488F589E02D1995811124C0AB
:102FE00080911E1190911F11892BE1F48DEF9FEFBD
:102FF00090931F1180931E118091831090918410E3
:10300000DC01ED91FC910284F385E02D199580910E
:10301000831090918410DC01ED91FC910288F3897A
:10302000E02D199580E0089581E00895CF93DF9316
:10303000DC014E5F5F4FFC019F012A1B3B0B91910E
:10304000992339F0EB01C40FD51F98834F5F5F4F71
:10305000F3CFCA01821B930B680F791FFB013297D4
:10306000308331962083CA01DF91CF910895CF92AA
:10307000DF92EF92FF920F931F93CF93DF9300D0D5
:103080001F92CDB7DEB79A01E0E0922F9F77220F13
:10309000232F221F330B31952115310509F090683C
:1030A00001E00E0FA1E0B0E0AC0FBD1FAE0FB11DEF
:1030B000FD0190832115310511F0E02FE6CF10E0DE
:1030C000DB01A01BB10B14968C93FE0131966F01AE
:1030D00080E090E08017910764F4F601F1906F01B1
:1030E0009C01201B310B260F371FF901F582019639
:1030F000F1CF80918310909184104F5F5F4F040F48
:10310000151FFC0120813181F90122813381A80141
:10311000BD01F90119957C010E946B0860930711AC
:10312000709308118093091190930A1181E0E016C1
:10313000F10609F080E00F900F900F900F90DF9153
:10314000CF911F910F91FF90EF90DF90CF90089556
:10315000CF92DF92EF92FF92CF93DF93EC010E9428
:103160006B086B017C018091831090918410DC01CD
:10317000ED91FC910480F581E02D1995892B79F46E
:103180000E946B08AB01BC014C195D096E097F09F7
:1031900048395A436105710530F380E00DC08091D4
:1031A000831090918410DC01ED91FC910680F781F1
:1031B000E02D1995888381E0DF91CF91FF90EF900A
:1031C000DF90CF900895CF93DF93EC018DE293E0F1
:1031D000998388831A821B821C821D8280E590E07D
:1031E0000E945F01BE016E5F7F4F44E050E08FE0C0
:1031F00090E00E94E2080E945E01CE01DF91CF9133
:1032000008955F926F927F928F929F92AF92BF923A
:10321000CF92DF92EF92FF920F931F93CF93DF93A2
:103220001F92CDB7DEB74C0185E890E191DF8111A7
:1032300025C021C00F5F1F4F8981F801ED57FF4E58
:103240008183282F2F7730E02C9DA0012D9D500DDC
:103250003C9D500D1124A40EB51E37E0CC0CDD1C96
:10326000EE1CFF1C3A95D1F787FF14C0CE010196E2
:103270006FDF8111DFCF80E090E085C07090851016
:10328000198201E010E0A12CB12CC12CD12C7601C7
:10329000C394ECCF872D807F55245394803309F05D
:1032A000512C8FEF800FD4018C93552011F1C80160
:1032B0008B579F4E4DDF8823F1F2C8018A579F4EEE
:1032C00047DF8823C1F20E5F1F4FD401EC91F0E07D
:1032D000ED57FF4EE380F12CFE2CEE248481E80EA6
:1032E000F11C8091851081FF08C0B2E0EB0EF11C4B
:1032F00004C080E0E12CF12C01C082E0C82ED12C6A
:10330000C01AD10A9EEF692E77247A94C601800FE5
:10331000911F8A159B0560F5CE01019619DF882360
:1033200009F4A9CF80911C1190911D110097A9F06B
:10333000552099F0F4012081A301421B51099A0103
:10334000200F311FE216F30640F4DC01ED91FC91F1
:103350000190F081E02D698119950038110528F45C
:103360008981F801ED57FF4E82830F5F1F4FCECF4B
:1033700080911C1190911D11892B21F401381105A8
:1033800008F079CFC8010F90DF91CF911F910F9175
:10339000FF90EF90DF90CF90BF90AF909F908F9075
:1033A0007F906F905F900895AF92BF92CF92DF921F
:1033B000EF92FF920F931F93CF93DF932091811091
:1033C00030918210FC01448155818901041B150B49
:1033D0004115510559F12115310541F124173507E2
:1033E00028F10217130718F08901015011097C0117
:1033F000A0907D10B0907E10C501DFEFCFEF65018A
:10340000C00ED11EC816D906A0F0F70160817181E7
:103410000E94A328009769F09C012A193B09021712
:10342000130710F0D22FC32F0196ECCF8FEF9FEF31
:1034300002C08D2F9C2FDF91CF911F910F91FF9094
:10344000EF90DF90CF90BF90AF900895CF93DF9330
:10345000CDB7DEB7E5970FB6F894DEBF0FBECDBF90
:10346000789484B5826084BD84B5816084BD85B55F
:10347000826085BD85B5816085BD80916E0081606B
:1034800080936E0010928100809181008260809311
:103490008100809181008160809381008091800013
:1034A0008160809380008091B10084608093B1003E
:1034B0008091B00081608093B00080919100826023
:1034C0008093910080919100816080939100809120
:1034D00090008160809390008091A1008260809331
:1034E000A1008091A10081608093A1008091A00043
:1034F00081608093A00080912101826080932101EE
:10350000809121018160809321018091200181605F
:103510008093200180917A00846080937A0080916A
:103520007A00826080937A0080917A008160809333
:103530007A0080917A00806880937A001092C100AE
:10354000E0918E0FF0918F0F82E08083E0918A0FDF
:10355000F0918B0F1082E0918C0FF0918D0F8FEC1A
:1035600080831092960FE091920FF091930F86E076
:103570008083E091900FF091910F80818061808332
:10358000E091900FF091910F808188608083E091AD
:10359000900FF091910F808180688083E091900F6F
:1035A000F091910F80818F7D80830E946B086093E2
:1035B000291070932A1080932B1090932C1062EB9B
:1035C00073E0CE0101960E940812CE0101960E947E
:1035D0002C04CE0101960E9493118DE293E09A8310
:1035E00089838091391290913A12A0913B12B09147
:1035F0003C128B839C83AD83BE83CE010196BCDAE3
:1036000067E087E190E00E94350960ED88E190E095
:103610000E94350963E089E190E00E94350960EC81
:1036200073E0CE0101960E940812CE0101960E941D
:103630002C04CE0101960E949311CE018C96C3DD1D
:103640004AE069A9CE0101960E94C3114AE068A927
:10365000CE010E960E94C3114AE06FA5CE0144969A
:103660000E94C3114AE06EA5CE0180960E94C3114C
:10367000BE01605E7F4FCE014A960E94EF1169EF56
:103680007BE0CE014A960E945611BE016C5E7F4FD0
:103690000E946D1169EF7BE00E945611BE01625FCE
:1036A0007F4F0E946D1169EF7BE00E945611BE01B1
:1036B0006F5F7F4F0E946D11BC01CE0186960E9404
:1036C000EF11CE014A960E949311CE0180960E947E
:1036D0009311CE0144960E949311CE010E960E9442
:1036E0009311CE0101960E949311CE0186960E94FD
:1036F0002C04CE0186960E94931160ED73E0CE01FA
:1037000001960E940812CE0101960E942C04CE015F
:1037100001960E94931188EA91E10E94A40E6DED3A
:1037200073E0CE0101960E940812CE0101960E941C
:103730002C04CE0101960E94931168EB72E28EEA8E
:1037400091E10E94530C68EE73E0CE0101960E9455
:103750000812CE0101960E942C04CE0101960E940F
:10376000931182EA91E10E94A40E68EF73E0CE010A
:1037700001960E940812CE0101960E942C04CE01EF
:1037800001960E94931180E092E09093191180932A
:1037900018118BE597E090931B1180931A1186E620
:1037A00094E0909311118093101162E08EE00E94DA
:1037B000961363E074E0CE0101960E940812CE01D8
:1037C00001960E942C04CE0101960E94931108E3F9
:1037D00012E0D8018C910E5F1F4F60E00E9496139B
:1037E000B2E004351B07A9F761E174E0CE01019650
:1037F0000E940812CE0101960E942C04CE0101966F
:103800000E9493110CE112E0F80180810E5F1F4FBE
:1038100061E00E949613F2E008331F07A9F76EE1FA
:1038200074E0CE0101960E940812CE0101960E941A
:103830002C04CE0101960E94931160ED77E080E0A8
:1038400090E00E94D2130E94AC060E946B08609325
:10385000291070932A1080932B1090932C106115CF
:103860000EE5700700ED800702EB900738F081E06D
:1038700090E09093F10E8093F00E18C0613A764874
:103880008140910598F48091F00E9091F10E01978E
:1038900069F48091360F9091370F01969093370F0E
:1038A0008093360F1092F10E1092F00E8EEA91E195
:1038B0000E943F0A6C01892B09F4B8C06AE274E0E7
:1038C0008EE79FE00E94DE120D2C000CEE08FF0830
:1038D000F7FE14C0E0917E0FF0917F0F0190F08110
:1038E000E02D6DE28EE79FE0199544275527BA0138
:1038F0004C195D096E097F092AE003C02AE0B7016F
:10390000A6018EE79FE00E941C128EE79FE00E94B6
:10391000AD1263E474E08EE79FE00E94DE128091B6
:10392000BE119091BF11A091C011B091C11188A793
:1039300099A7AAA7BBA79E01285D3F4F790100E088
:1039400010E0D7014D917D0150E060E070E02AE089
:103950008EE79FE00E941C120330110531F069EFE1
:103960007BE08EE79FE00E94DE120F5F1F4F043066
:10397000110539F769E474E08EE79FE00E94DE12DA
:103980004091C2115091C31160E070E02AE08EE7CF
:103990009FE00E941C128EE79FE00E94AD1248E15A
:1039A00050E062EF7EE08EEA91E10E944D0161E518
:1039B00074E08EE79FE00E94B11262EF7EE08EE736
:1039C0009FE00E94B1124091C2115091C3118DE24B
:1039D00093E09A8389838091BE119091BF11A09149
:1039E000C011B091C1118B839C83AD83BE83BE0196
:1039F0006F5F7F4F8EEA91E10E94EA0C6BE574E005
:103A00008EEA91E10E940908CE010196DCDB6B8110
:103A10008EEA91E10E94730B6CEB74E08EEA91E107
:103A20000E9409088EEA91E10E94A70C809129105A
:103A300090912A10A0912B10B0912C1040910A0F58
:103A400050910B0F60910C0F70910D0F841B950B13
:103A5000A60BB70B853F9140A105B10540F48091BD
:103A6000EE0E9091EF0E892B09F485C011C10E94D2
:103A700068058091291090912A10A0912B10B09187
:103A80002C1080930A0F90930B0FA0930C0FB09300
:103A90000D0F98E3C92E9FE0D92E23EE822E21E14F
:103AA000922E32EDE32E3EE0F32E4CE1A42E42E0C6
:103AB000B42E08E312E0D8018C910E5F1F4F0E94D4
:103AC0003F13F601208131818217930709F441C029
:103AD00077247394D7012D913C91232B09F0712CFD
:103AE000272D30E0F70131832083D6018D939C93FD
:103AF000672DF50180810E9467138091EE0E9091F1
:103B0000EF0E892B31F5711005C08CE3682E83E030
:103B1000782E04C0B5E36B2EB3E07B2EB401CE014A
:103B200001960E94EF11B301CE0101960E94561139
:103B3000BC01CE010E960E94EF11CE010E960E949E
:103B4000FE05CE010E960E949311CE0101960E94B1
:103B50009311F2E0CF0ED11C26E0820E911C32E0D0
:103B6000E30EF11C42E0A40EB11C52E0043515072F
:103B700009F0A1CF74CF80910E0F90910F0FA091FB
:103B8000100FB091110F892B8A2B8B2B09F088C055
:103B90008091291090912A10A0912B10B0912C1097
:103BA00080930E0F90930F0FA093100FB093110FEF
:103BB0006AE375E0CE0101960E940812CE010196DB
:103BC0000E942C04CE0101960E9493110E94680568
:103BD000F2EDEF2EFEE0FF2EACE1CA2EA2E0DA2ECF
:103BE0008701D8016C910E5F1F4FF6018081F2E0D2
:103BF000CF0ED11C0E9467132EE00E3E120789F7EC
:103C00008091EE0E9091EF0E892B79F06BE475E0C8
:103C1000CE0101960E940812CE0101960E942C044A
:103C2000CE0101960E9493113BC003EE11E1D70132
:103C30008D919D917D01892B29F4ECE3CE2EE3E05B
:103C4000DE2E04C075E3C72E73E0D72EB801CE0177
:103C50000E960E94EF11B601CE010E960E945611EB
:103C6000BC01CE0101960E94EF11CE0101960E9487
:103C7000FE05CE0101960E949311CE010E960E9480
:103C800093110A5F1F4FB2E107331B0781F608C08B
:103C900010920E0F10920F0F1092100F1092110F22
:103CA0008091291090912A10A0912B10B0912C1086
:103CB0004091120F5091130F6091140F7091150FD6
:103CC0008C019D01041B150B260B370BB901A801B4
:103CD000493853416105710590F08093120F90931C
:103CE000130FA093140FB093150F8091EE0E9091C7
:103CF000EF0E892B21F465D9882309F421C2809124
:103D0000EE0E9091EF0E892B09F040C15AD988230D
:103D100009F43CC10E946B086B017C0180910B117E
:103D200090910C11A0910D11B0910E11A701960167
:103D3000281B390B4A0B5B0BDA01C90189399A43FD
:103D4000A105B105A8F48091071190910811A091E7
:103D50000911B0910A1197018601081B190B2A0B52
:103D60003B0BD901C80189399A43A105B105C8F1B6
:103D700020910F118091831090918410222371F073
:103D80002CEF3FEF30931F1120931E11DC01ED91BA
:103D9000FC910288F389E02D1995F8C020EC20935E
:103DA000851010928610DC01ED91FC910280F38168
:103DB000E02D42E050E065E870E11995C0920711EE
:103DC000D0920811E0920911F0920A11C0920B11E1
:103DD000D0920C11E0920D11F0920E1181E08093BF
:103DE0000F118091831090918410DC01ED91FC9172
:103DF0000480F581E02D1995892B09F4C7C0CE0107
:103E00000196FFD94C01892B09F4C0C0C0920B1157
:103E1000D0920C11E0920D11F0920E1110918510BC
:103E2000812F807F803309F096C0609010117090D0
:103E300011116114710409F4A9C04DB65EB6E9818F
:103E4000F0E0DF01AD57BF4E13964C91139750E051
:103E5000542F442714968C91480F511DCA01019686
:103E60002DB73EB7281B390B0FB6F8943EBF0FBED7
:103E70002DBF8DB79EB70196BC0120E030E024171E
:103E8000350769F0D901AE0FBF1FAD57BF4E15966C
:103E90000C91DB010D93BD012F5F3F4FF0CFDC0193
:103EA000A20FB31F1C921670B12EB2E01B133EC0BE
:103EB000B9016E0F7F1FDB01AD57BF4E15960C91F8
:103EC000159710E0102F002716964C91040F111D26
:103ED000ABEFBFEFAE1BBF0BA21BB30BAD01480D89
:103EE000591D66577F4EF301199580E48093851024
:103EF000B0928610109387100093881080918310E1
:103F000090918410DC01ED91FC910280F381E02D11
:103F100044E050E065E870E11995C0920711D09235
:103F20000811E0920911F0920A110FC04DEF5FEFF6
:103F30004E1B5F0B421B530B480D591D2E0F3F1F8D
:103F4000B90168577F4EF30119950FB6F8945EBE1C
:103F50000FBE4DBE1BC0803CA9F480ED8093851040
:103F6000109286108091831090918410DC01ED9165
:103F7000FC910280F381E02D42E050E065E870E1C1
:103F8000199504C0803D11F410920F1162EA71E19D
:103F9000CE0101960E94140E8D85843009F470C004
:103FA0006DE575E0CE010E960E940812CE010E96C8
:103FB0000E942C04CE010E960E94931169E375E0D5
:103FC0008DE790E10E947E118CC10D3009F010E068
:103FD000CE0101960E940E0F882309F451C0CE0134
:103FE00001960E94A714892B99F3CE0101960E9495
:103FF0008D14082F8E871F8641E050E0BE01625F5E
:104000007F4F8DE790E10E9429110A30F1F61123CC
:1040100009F467C16DE770E18EE79FE00E94C2126C
:104020006DE675E0CE010E960E940812CE010E9646
:10403000BBD98C01CE010E960E94931117FD83C04F
:1040400069E775E0CE0101960E94B11260E975E062
:10405000CE0101960E94B11268EA75E0CE01019688
:104060000E94B112CE0101960E94AD126AEB75E07A
:10407000CE0101960E94B112CE0101960E94211438
:1040800068EA71E1CE0101960E94140E8D8584309C
:10409000D1F100E211E17801D701ED91FC91048C9E
:1040A000F58DE02DBE016F5F7F4FC701199581111E
:1040B0002AC0BDE0EB0EF11CE2EAEE16E1E1FE06DD
:1040C00059F7E12CF12CD801ED91FC910688F78984
:1040D000E02DC801199581110DC0D801ED91FC9119
:1040E000068CF78DE02DBE016F5F7F4FC8011995DB
:1040F0008111CDC2EFEFEE1AFE0A035F1F4FFAE007
:10410000EF16F10401F700E211E1D801ED91FC9105
:104110000488F589E02DC8011995811108C0D801DE
:10412000ED91FC910288F389E02DC8011995035F98
:104130001F4FB1E1023A1B0741F70E941C1085CBCB
:104140000E94AC06DCCD64E476E0CE010E960E94BF
:104150000812CE010E9628D98C01CE010E960E942F
:10416000931160E576E0CE01019617FDBCC00E9478
:10417000B11260E676E08EE79FE00E94B11268E738
:1041800076E0CE0101960E94B112CE0101960E9406
:10419000AD126FE876E0CE0101960E94DE1267EA6A
:1041A00076E0CE0101960E94DE1268ED76E0CE0147
:1041B00001960E94DE126AEE76E0CE0101960E9420
:1041C000DE1261E077E0CE0101960E94DE1268E126
:1041D00077E0CE0101960E94DE126BE277E0CE011D
:1041E00001960E94DE12CE010E960E94E318EE8523
:1041F000FF850190F081E02DBE016F5F7F4FCE0102
:104200000E9619956EE377E0CE0101960E94DE12BC
:104210006BE477E0CE0101960E94DE1268E577E05C
:10422000CE0101960E94DE1269E977E0CE01019687
:104230000E94DE1269EC77E0CE0101960E94DE1248
:104240006DEF77E0CE0101960E94DE1265E378E023
:10425000CE0101960E94DE1261E678E0CE01019661
:104260000E94DE126BE878E0CE0101960E94DE1219
:1042700065EE78E0CE0101960E94DE1263E179E0FE
:10428000CE0101960E94DE1263E479E0CE01019630
:104290000E94DE126EE779E0CE0101960E94DE12E6
:1042A000CE010E960E94E318EE85FF850190F08105
:1042B000E02DBE016F5F7F4FCE010E9619956BE921
:1042C00079E0CE0101960E94DE1260EB79E0CE012A
:1042D00001960E94DE126EEB79E0CE0101960E94FB
:1042E000DE1211E075CE0E94B11260E975E0CE01D8
:1042F00001960E94B11268EA75E0CE0101960E9413
:10430000B11268EC79E0CE0101960E94B112CE01A3
:1043100001960E94AD1264ED79E0CE0101960E94F3
:10432000B11264EE79E0CE0101960E94B1126BEEFB
:1043300079E0CE0101960E94B11262EF79E0CE01E0
:1043400001960E94B11269E07AE0CE0101960E94C6
:10435000B11269E17AE0CE0101960E94B11267EBD9
:104360007AE0CE0101960E94B1126FEB7AE0CE01A5
:1043700001960E94B1120E946B086B017C0128EE2D
:1043800033E040E050E055D429013A01CA01B901B7
:104390002CE330E040E050E04CD449015A01CA011E
:1043A000B9012CE330E040E050E043D42AAB3BAB12
:1043B0004CAB5DAB8AA99BA968E170E06BD4FB01B3
:1043C000A8EEB3E0A30192012AD497018601061B4F
:1043D000170B280B390BD901C8019F930F93ACE33E
:1043E000B0E0A50194011BD4461A570A680A790A5D
:1043F0001F924F922CE34AA95BA9249FC001259FDD
:10440000900D1124881A990AA108B1081F928F9261
:1044100028E12E9FC0012F9F900D1124CAA8DBA870
:10442000C81AD90ADD24DF92CF928091360F52E369
:10443000859FE00D1124F0E0FF93EF9386EC9AE066
:104440009F938F9386E19FE09F938F9396D666E12B
:104450007FE0CE0101960E94DE1269EE7AE0CE0185
:1044600001960E94B1128DB79EB70E960FB6F894C2
:104470009EBF0FBE8DBF8091EE0E9091EF0E892BE7
:1044800019F460E673E002C064E473E0CE010E96B6
:104490000E94081260EF7AE0CE0144960E94081252
:1044A000BE01625F7F4FCE0144960E946D1169EE9E
:1044B0007AE00E945611BC01CE0101960E94C21200
:1044C000CE0144960E949311CE010E960E94931144
:1044D00069EE7AE0CE0101960E94B1126EEF7AE0A9
:1044E000CE0101960E94B11288E3A82E8FE0B82E6B
:1044F00092ED892E9EE0992E28E3C22E22E0D22E44
:104500003CE1E32E32E0F32E00E010E0D5018D9186
:104510009D915D01892B19F467E973E002C06DE795
:1045200073E0CE010E960E940812F601619171911E
:104530006F014AE0CE0144960E9498110F5F1F4F11
:104540004AE0B801CE014A960E9498116BE27BE0E6
:10455000CE0180960E940812BE01665E7F4FCE019A
:1045600080960E946D116BE47BE00E945611BE01A3
:104570006C5E7F4F0E946D1168E57BE00E945611D2
:10458000BE01625F7F4F0E946D1162E67BE00E9478
:104590005611DC0114964D915C9115976D917C91AB
:1045A000CE0101960E94B014CE0180960E94931114
:1045B000CE014A960E949311CE0144960E94931117
:1045C000CE010E960E949311F401819191914F01B9
:1045D000892B19F467E973E002C06DE773E0CE013F
:1045E0000E960E940812D7016D917D917D014AE0DF
:1045F000CE0144960E9498114AE0B801CE014A9635
:104600000E94981169E67BE0CE0180960E94081214
:10461000BE01665E7F4FCE0180960E946D116BE4F5
:104620007BE00E945611BE016C5E7F4F0E946D11AF
:1046300068E57BE00E945611BE01625F7F4F0E94D9
:104640006D1164E87BE00E945611BC01CE01019619
:104650000E94C212CE0180960E949311CE014A960A
:104660000E949311CE0144960E949311CE010E96A2
:104670000E9493110E30110509F048CF6FE87BE0DE
:10468000CE0101960E94B11265E376E0F1CC8B81F8
:104690009C81D80113969C938E9312978D819E8155
:1046A000AF81B885F80184839583A683B783898514
:1046B0009A85AB85BC8580879187A287B3878DE07B
:1046C0008E9DF0018F9DF00D1124E05EFE4E8D85D4
:1046D000848768E97BE0CE010E960E940812CE0125
:1046E0000E960E942C04CE010E960E9493116DEA44
:1046F0007BE0CE0101960E94DE124E2D50E060E07C
:1047000070E02AE0CE0101960E941C12CE010196B3
:104710000E94AD12F8CCCF93DF93CDE7D0E128977C
:10472000CE010E94931180E1CD32D807C1F78DE709
:1047300090E10E949311C7E3D2E12697CE010E9437
:10474000931181E1C33ED807C1F7DF91CF9108955E
:10475000CF92DF92EF92FF92CF93DF93CDE2D3E03F
:10476000D0934412C09343121092451210924612F5
:1047700010924712109248121092810F1092800FDF
:1047800088EEC82E83E0D82EE12CF12CC092820F47
:10479000D092830FE092840FF092850F85E692E02D
:1047A00090937F0F80937E0F85EC90E090938B0F1A
:1047B00080938A0F84EC90E090938D0F80938C0F00
:1047C00080EC90E090938F0F80938E0F81EC90E0BF
:1047D0009093910F8093900F82EC90E09093930FC1
:1047E0008093920F86EC90E09093950F8093940FB6
:1047F0001092970F1092980F1092990F10929A0F93
:10480000D0934A12C093491210924B1210924C123C
:1048100010924D1210924E12D0935012C0934F121C
:10482000109251121092521210925312109254126E
:10483000D0935612C09355121092571210925812DC
:104840001092591210925A12D0935C12C0935B12BC
:1048500010925D1210925E1210925F12109260120E
:10486000D0936212C093611210926312109264127C
:104870001092651210926612D0931C10C0931B10F8
:1048800010921D1010921E1010921F1010922010E6
:10489000D0932410C093231010922510109226104C
:1048A0001092271010922810D0936812C0936712AC
:1048B0001092691210926A1210926B1210926C127E
:1048C000D0933E12C0933D1210923F1210924012AC
:1048D0001092411210924212D0933812C0933712A4
:1048E00080EC8093391288EA80933A1281E08093B9
:1048F0003B1284E680933C1264E97CE083EE91E114
:104900000E9408126DEB7CE089EE91E10E94081292
:1049100066EE7CE08FEE91E10E9408126FE07DE090
:1049200085EF91E10E94081268E37DE08BEF91E151
:104930000E94081261E67DE081E092E10E94081287
:104940006AE87DE087E092E10E94081263EB7DE077
:104950008DE092E10E9408126CED7DE083E192E12E
:104960000E94081265E07EE089E192E10E9408124F
:104970006EE27EE08FE192E10E94081267E57EE040
:1049800085E292E10E94081260E87EE08BE292E10B
:104990000E94081269EA7EE081E392E10E94081217
:1049A0001092D9111092D811C092DA11D092DB1165
:1049B000E092DC11F092DD1129E033E03093D71161
:1049C0002093D61184E08093E2111092CC111092C2
:1049D000CB11C092CD11D092CE11E092CF11F092B6
:1049E000D0113093CA112093C9118093D511109220
:1049F000B1111092B011C092B211D092B311E092E5
:104A0000B411F092B5112FEA32E03093AF11209338
:104A1000AE11D093BD11C093BC111092BE11109273
:104A2000BF111092C0111092C1118093C611109243
:104A3000AB111092AA1185E792E09093A91180938F
:104A4000A81127E130E03093AD112093AC11109202
:104A5000A5111092A4119093A3118093A21180E547
:104A600090E09093A7118093A611E0E2F1E148EE67
:104A700053E060E070E029E033E084E013821282CA
:104A800044835583668377833183208384873D966F
:104A900091E1E23AF90791F78DE293E090931311D7
:104AA0008093121110921411109215111092161178
:104AB000109217118FEF9FEF90931F1180931E118B
:104AC00089EC91E1909384108093831010921D11D2
:104AD00010921C1169E375E08DE790E10E940812C5
:104AE000CDE2D0E169E375E0CE010E94081228967C
:104AF00080E1CD37D807B1F70E946B086093291089
:104B000070932A1080932B1090932C10DF91CF91EB
:104B1000FF90EF90DF90CF9008951F93FC019927AD
:104B20008827BC01E89411911032E9F3193010F094
:104B30001E30C8F31B3249F01D3241F4689405C0A1
:104B400026D0610F711D811D911D119110531A30D6
:104B5000B8F33EF490958095709561957F4F8F4F97
:104B60009F4F1F9108954532510518F4423008F0C7
:104B700004C0FB011082CB010895BB274A3031F4F9
:104B8000992322F4BDE2909581959F4F20C0592F23
:104B9000482F372F262F660F771F881F991F660F04
:104BA000771F881F991F620F731F841F951F660F41
:104BB000771F881F991F08954532510518F4423018
:104BC00008F004C0FB011082CB010895BB27FB0154
:104BD0005527AA27880F991FAA1FA41710F0A41BF6
:104BE00083955051B9F7A05DAA3308F0A95DA19350
:104BF000009779F7B111B1931192CB0100C0DC019C
:104C0000FC01672F71917723E1F7329704C07C9103
:104C10006D9370836291AE17BF07C8F308952BD0D0
:104C2000A59F900DB49F900DA49F800D911D112400
:104C30000895A1E21A2EAA1BBB1BFD010DC0AA1FDD
:104C4000BB1FEE1FFF1FA217B307E407F50720F0F5
:104C5000A21BB30BE40BF50B661F771F881F991F70
:104C60001A9469F760957095809590959B01AC01B9
:104C7000BD01CF010895A29FB001B39FC001A39FC2
:104C8000700D811D1124911DB29F700D811D112485
:104C9000911D0895AA1BBB1B51E107C0AA1FBB1F92
:104CA000A617B70710F0A61BB70B881F991F5A95B8
:104CB000A9F780959095BC01CD010895EE0FFF1FD7
:104CC000881F8BBF0790F691E02D1994CF93DF9347
:104CD0008230910510F482E090E0E0916F12F09143
:104CE000701220E030E0C0E0D0E0309711F1408158
:104CF000518148175907C0F04817590761F482815C
:104D00009381209719F09B838A832BC09093701214
:104D100080936F1226C02115310519F042175307F1
:104D200018F49A01BE01DF01EF010280F381E02D4A
:104D3000DCCF2115310509F1281B390B2430310551
:104D400090F412968D919C9113976115710521F045
:104D5000FB019383828304C09093701280936F123F
:104D6000FD01329644C0FD01E20FF31F8193919340
:104D7000225031092D933C933AC020916D1230910D
:104D80006E12232B41F420911802309119023093B6
:104D90006E1220936D122091160230911702211588
:104DA000310541F42DB73EB740911A0250911B02D4
:104DB000241B350BE0916D12F0916E12E217F30790
:104DC000A0F42E1B3F0B2817390778F0AC014E5F7B
:104DD0005F4F2417350748F04E0F5F1F50936E1238
:104DE00040936D128193919302C0E0E0F0E0CF0117
:104DF000DF91CF9108950F931F93CF93DF93009787
:104E000009F48CC0FC0132971382128200916F1258
:104E1000109170120115110581F420813181820FEA
:104E2000931F20916D1230916E122817390779F572
:104E3000F0936E12E0936D1271C0D80140E050E023
:104E4000AE17BF0750F412962D913C911397AD0108
:104E50002115310509F1D901F3CF9D01DA01338321
:104E6000228360817181860F971F8217930769F4EF
:104E7000EC0128813981260F371F2E5F3F4F318388
:104E800020838A819B8193838283452B29F4F0932D
:104E90007012E0936F1242C01396FC93EE93129738
:104EA000ED01499159919E01240F351FE217F30737
:104EB00071F480819181840F951F029611969C93C5
:104EC0008E938281938113969C938E931297E0E048
:104ED000F0E0D80112968D919C911397009719F0EC
:104EE000F8018C01F6CF8D919C9198012E5F3F4F78
:104EF000820F931F20916D1230916E12281739077F
:104F000069F4309729F41092701210926F1202C057
:104F10001382128210936E1200936D12DF91CF9163
:104F20001F910F9108956F927F928F929F92AF92EF
:104F3000BF92CF92DF92EF92FF920F931F93CF9386
:104F4000DF93EC01009781F4CB01DF91CF911F91AA
:104F50000F91FF90EF90DF90CF90BF90AF909F9018
:104F60008F907F906F90B2CEFC01E60FF71F9C01EF
:104F700022503109E217F30708F4A8C0D9010D91B6
:104F80001C91119706171707A8F00530110508F4B2
:104F90009BC0C80104978617970708F495C0025074
:104FA0001109061B170B019311936D937C93CF018D
:104FB00022DF8AC05B01A01AB10A4C01800E911E4B
:104FC000A0916F12B091701240E050E0E12CF12CF2
:104FD000109709F44AC0A815B905D1F56D907C90D9
:104FE0001197630182E0C80ED11CCA14DB0480F162
:104FF000A3014A195B096A0182E0C80ED11C12960E
:10500000BC9012971396AC91B5E0CB16D10440F04A
:10501000B282A38351834083D9016D937C930AC0EC
:105020000E5F1F4FC301800F911FF9019183808391
:10503000EB2DFA2FE114F10431F0D7011396FC9314
:10504000EE93129741C0F0937012E0936F123CC040
:105050008D919C9111974817590708F4AC017D0177
:1050600012960D90BC91A02DB3CF80916D129091AE
:105070006E1288159905E1F446175707C8F4809118
:10508000160290911702009741F48DB79EB7409198
:105090001A0250911B02841B950BE817F907B0F414
:1050A000F0936E12E0936D12F901718360830CC06E
:1050B000CB010CDE7C01009749F0A801BE011BD09A
:1050C000CE0199DEC70104C0CE0102C080E090E0AD
:1050D000DF91CF911F910F91FF90EF90DF90CF90D4
:1050E000BF90AF909F908F907F906F90089581E0D8
:1050F00090E0F8940BC3FB01DC0102C001900D921B
:1051000041505040D8F70895FB01DC018D9101908A
:1051100080190110D9F3990B0895FB01DC0101906E
:105120000D920020E1F70895FB01DC014150504051
:1051300048F001900D920020C9F701C01D92415026
:105140005040E0F70895FB0151915523A9F0BF01AC
:10515000DC014D9145174111E1F759F4CD01019062
:10516000002049F04D9140154111C9F3FB01411157
:10517000EFCF81E090E0019708950F931F93CF93B5
:10518000DF93CDB7DEB72E970FB6F894DEBF0FBE14
:10519000CDBF0E891F8986E08C831A8309838FEF28
:1051A0009FE79E838D83AE01465E5F4F688D798D4C
:1051B000CE01019611D02F813885F801E20FF31F3F
:1051C00010822E960FB6F894DEBF0FBECDBFDF91D2
:1051D000CF911F910F9108952F923F924F925F921E
:1051E0006F927F928F929F92AF92BF92CF92DF92F7
:1051F000EF92FF920F931F93CF93DF93CDB7DEB75C
:105200002C970FB6F894DEBF0FBECDBF7C016B01AB
:105210008A01FC0117821682838181FFB0C1CE0111
:1052200001964C01F7019381F60193FD859193FF5F
:1052300081916F01882309F49EC1853239F493FD71
:10524000859193FF81916F01853221F4B70190E040
:10525000C7D1E8CF512C312C20E02032A0F48B3282
:1052600069F030F4803259F0833269F420612CC047
:105270008D3239F0803339F4216026C022602460F9
:1052800023C0286021C027FD27C030ED380F3A30F9
:1052900078F426FF06C0FAE05F9E300D1124532EED
:1052A00013C08AE0389E300D1124332E20620CC0CA
:1052B0008E3221F426FD5FC1206406C08C3611F4C5
:1052C000206802C0883641F4F60193FD859193FF72
:1052D00081916F018111C1CF982F9F7D955493309B
:1052E00028F40C5F1F4FFFE3F9830DC0833631F0C4
:1052F000833771F0833509F057C021C0F8018081F0
:1053000089830E5F1F4F44244394512C540114C0D1
:105310003801F2E06F0E711CF801A080B18026FF09
:1053200003C0652D70E002C06FEF7FEFC5012C87D1
:105330004CD12C0183012C852F77222E16C03801E9
:10534000F2E06F0E711CF801A080B18026FF03C04F
:10535000652D70E002C06FEF7FEFC5012C872AD169
:105360002C012C852068222E830123FC19C0832D5B
:1053700090E048165906A0F4B70180E290E030D1E1
:105380003A94F5CFF50127FC859127FE81915F01C5
:10539000B70190E025D131103A94F1E04F1A51084D
:1053A0004114510479F7DEC0843611F0893631F5A5
:1053B000F80127FF07C060817181828193810C5FB2
:1053C0001F4F08C060817181072E000C880B990B5C
:1053D0000E5F1F4F2F76722E97FF09C09095809514
:1053E000709561957F4F8F4F9F4F2068722E2AE0F6
:1053F00030E0A4012DD1A82EA81843C0853729F488
:105400002F7EB22E2AE030E025C0F22FF97FBF2E8A
:105410008F36C1F018F4883579F0ADC0803719F0B7
:10542000883721F0A8C02F2F2061B22EB4FE0DC006
:105430008B2D8460B82E09C024FF0AC09F2F966070
:10544000B92E06C028E030E005C020E130E002C0FF
:1054500020E132E0F801B7FE07C0608171818281EE
:1054600093810C5F1F4F06C06081718180E090E0E6
:105470000E5F1F4FA401ECD0A82EA818FB2DFF77BC
:105480007F2E76FE0BC0372D3E7FA51450F474FEA0
:105490000AC072FC08C0372D3E7E05C0BA2C372DDD
:1054A00003C0BA2C01C0B52C34FF0DC0FE01EA0DBB
:1054B000F11D8081803311F4397E09C032FF06C0AE
:1054C000B394B39404C0832F867809F0B39433FD6A
:1054D00012C030FF06C05A2CB31418F4530C5B18DA
:1054E000B32CB31460F4B70180E290E03C8778D02D
:1054F000B3943C85F6CFB31410F43B1801C0312CA3
:1055000034FF11C0B70180E390E03C8769D03C854F
:1055100032FF16C031FD03C088E790E002C088E585
:1055200090E0B7010CC0832F867851F031FF02C0A4
:105530008BE201C080E237FD8DE2B70190E050D0F0
:10554000A51430F4B70180E390E04AD05A94F8CF24
:10555000AA94F401EA0DF11D8081B70190E040D0DA
:10556000A110F6CF332009F45DCEB70180E290E0C0
:1055700037D03A94F7CFF7018681978102C08FEF39
:105580009FEF2C960FB6F894DEBF0FBECDBFDF9114
:10559000CF911F910F91FF90EF90DF90CF90BF9030
:1055A000AF909F908F907F906F905F904F903F90C3
:1055B0002F900895FC010590615070400110D8F7BC
:1055C000809590958E0F9F1F0895FC01615070404B
:1055D00001900110D8F7809590958E0F9F1F089528
:1055E0000F931F93CF93DF93FB01238121FD03C012
:1055F0008FEF9FEF28C022FF16C04681578124817C
:1056000035814217530744F4A081B1819D012F5F7A
:105610003F4F318320838C93268137812F5F3F4F0B
:105620003783268310C0EB01092F182F0084F185E2
:10563000E02D1995892BE1F68E819F8101969F833C
:105640008E83812F902FDF91CF911F910F9108951D
:10565000FA01AA27283051F1203181F1E8946F93A3
:105660006E7F6E5F7F4F8F4F9F4FAF4FB1E03ED049
:10567000B4E03CD0670F781F891F9A1FA11D680FE7
:10568000791F8A1F911DA11D6A0F711D811D911D1A
:10569000A11D20D009F468943F912AE0269F11248F
:1056A0003019305D3193DEF6CF010895462F4770F3
:1056B000405D4193B3E00FD0C9F7F6CF462F4F704E
:1056C000405D4A3318F0495D31FD4052419302D0AC
:1056D000A9F7EACFB4E0A695979587957795679552
:1056E000BA95C9F700976105710508959B01AC0152
:1056F0000A2E06945795479537952795BA95C9F779
:10570000620F731F841F951FA01D089511E0C5E14E
:10571000D1E000E005C0802FFE01D0DA2196011D06
:0E572000C631D10780E00807B1F7F894FFCF3B
:10572E003139322E3136382E312E3230300000C023
:10573E00DEADBEEFFEED0000711280001700190005
:10574E001B001D001F00210023002500270029003B
:10575E002B002D002F003100160018001A001C001F
:10576E001E00200022002400260028002A002C0003
:10577E002E00300000044D5154540401005E000010
:10578E000000000000B50F320F7F0F5D0F710FFB91
:10579E000F00000000A30BA60DA40E00000000CF0A
:1057AE0010320FCF1000000000CF10CF10CF10CF4F
:1057BE0010CF10CF10CF10A10BCF10CF10CF10CF16
:1057CE0010CF10CF10CF10CF10CF100000000073ED
:1057DE000B3508890B170A71091E08530CEA0A3F8C
:1057EE000CEA0CCC0BA70C3F0AF9094D01910B8D5D
:1057FE000B00000000CF10CF10CF10CF10CF10CF66
:10580E0010CF10CF10CF10CF10CF10CF1000000040
:10581E0000CF10320FCF10CF10CF10CF10000000DE
:10582E0000CF10320F000000000B14B014A7148D1F
:10583E001466140A142C15BA03891421140E0FC4FD
:10584E000B4A014801B90B5401000000006512001B
:10585E00000000CF107475726E4F6E007475726E0C
:10586E004F6666003C7370616E20636C6173733DAE
:10587E002272223E547275653C2F7370616E3E002B
:10588E003C7370616E20636C6173733D2267223EC0
:10589E0046616C73653C2F7370616E3E003C737095
:1058AE00616E20636C6173733D2267223E4F6E3CC6
:1058BE002F7370616E3E003C7370616E20636C617D
:1058CE0073733D2272223E4F66663C2F7370616E7B
:1058DE003E004E6574776F726B5F73657475700002
:1058EE004D7920495020616464726573733A2000CB
:1058FE0054656C6E65745F736574757000535344B4
:10590E00505F736574757000576562536572766586
:10591E00725F7365747570004D5154545F73657486
:10592E00757000427574746F6E735F736574757005
:10593E00004C69676874735F736574757000536C9F
:10594E006565702032207365630052656365697604
:10595E006564207061636B6574206F662073697A6D
:10596E0065200046726F6D20002C20706F727420BF
:10597E0000436F6E74656E74733A00485454502F22
:10598E00312E3120323030204F4B0D0A53455256B6
:10599E0045523A437265616D2F332E312C55506E40
:1059AE00502F312E302C55506E502F312E300D0A77
:1059BE0043414348452D434F4E54524F4C3A6D612F
:1059CE00782D6167653D3336300D0A4C4F43415497
:1059DE00494F4E3A687474703A2F2F002F646576D3
:1059EE00646573632E786D6C0D0A4E543A75756945
:1059FE00643A62363239613134612D643334322D7A
:105A0E00336335632D626338632D66373431376106
:105A1E00726475696E6F0D0A4E54533A73736470E7
:105A2E003A616C6976650D0A55534E3A757569641F
:105A3E003A62363239613134612D643334322D336A
:105A4E006335632D626338632D6637343137617287
:105A5E006475696E6F0D0A0D0A0073656E6453747A
:105A6E00617475734C6967687473006E6574206E2B
:105A7E006F7420617661696C61626C65006E65772A
:105A8E0020636C69656E745F68747470006661760D
:105A9E0069636F6E2E69636F00485454502F312E18
:105AAE003120343034204E6F7420466F756E640092
:105ABE00436F6E74656E742D547970653A207465FB
:105ACE0078742F68746D6C00436F6E6E65637469C5
